:1000000080550020856A0000372C0100596A0000E5
:10001000596A0000596A0000596A00000000000097
:100020000000000000000000000000008D630000E0
:10003000596A00000000000039630000596A00009E
:100040003D640000013101003D6400003D6400009A
:100050003D6400003D6400003D6400003D6400001C
:10006000AF3001003D6400003D640000E730010056
:100070003D6400003D6400003D6400003D640000FC
:100080003D6400003D6400003D6400003D640000EC
:100090003D6400003D6400003D6400003D640000DC
:1000A0003D6400003D6400003D6400003D640000CC
:1000B0003D6400003D6400003D6400003D640000BC
:1000C0003D6400003D6400003D6400003D640000AC
:1000D0003D6400003D6400003D6400003D6400009C
:1000E0003D6400003D6400003D6400003D6400008C
:1000F0003D6400003D6400003D6400003D6400007C
:100100007BB972B90029BEBF00204FF0004106E064
:1001100008BF00281CBF6FF000414FF0FF3000F017
:1001200057B8ADF1080C6DE904CE002909DB002BAE
:100130001ADB03F05DFBDDF804E0DDE9022304B027
:100140007047404261EB4101002B1BDB03F050FB89
:10015000DDF804E0DDE9022304B0404261EB410137
:10016000524263EB43037047524263EB430303F095
:100170003FFBDDF804E0DDE9022304B0404261EB1F
:1001800041017047524263EB430303F031FBDDF85A
:1001900004E0DDE9022304B0524263EB43037047FD
:1001A00053B94AB9002908BF00281CBF4FF0FF31DE
:1001B0004FF0FF3000F00CB8ADF1080C6DE904CE43
:1001C00003F016FBDDF804E0DDE9022304B070471C
:1001D000704700BF70B5174C6078002823D101200C
:1001E000607003F090FD6FF0270528B903F0A1FDC2
:1001F00010B903F0A8FD20B10F486060A570082079
:1002000010E003F055FD40B903F05CFD28B903F0A0
:1002100070FD10B903F081FD30B1074831306060E6
:10022000A5700420E07070BD4FF48F71742002F04F
:1002300001FF00000000002022400000084991F961
:100240000320904203DA91F90220904201DC10462B
:1002500070474968801A085C0249085670470000D8
:1002600000000020144000002DE9F0411C4690469B
:100270000D4606466FF01507042804D81CB103F09C
:1002800007FCA84202D83846BDE8F081054842463E
:1002900050F8260018B14057824200DD0246227015
:1002A0000020F1E76C04002001480078704700004E
:1002B0000800002005490A78904201D300207047C9
:1002C000496800EB400001EB001070470800002077
:1002D0000E4910B591F82D00202812D091F82D006C
:1002E000A1F58062C0EBC00002EB800091F82D10F8
:1002F0004068C1EBC10152F82120BDE81040042143
:10030000104740F6BC01702002F094FE80080020E7
:1003100070B50546202A28D019481A4C00EB831CDA
:1003200003EB43030CEB42002344202922D00CEBC7
:10033000410140784C784870204601460CEB410062
:10034000914205704078F8D193F82220202A1ABFF4
:100350000CEB4202547083F8214020220CEB410C3C
:100360008CF8012083F8221070BD4FF426717020A4
:1003700002F060FE93F82040407883F82000DBE72D
:1003800000080020800800202DE9FF4F8DB01546A1
:100390000C4601F0E9FD284420F07F4008902168D8
:1003A000081A0002C11700EB11600012002800F3C8
:1003B000F080DDF84080CD4808EB48010844099002
:1003C00090F820502020CA4E0DF1180A0DF11C099A
:1003D0008DF81800202D1CBFC64800EB881B38D0B4
:1003E000C5EBC50006EB800000F10801C068276876
:1003F000381A0002C21700EB1260001229D4E089FB
:1004000000B3C889F0B90868039002F08DFCB0F51C
:10041000C67F08BF0D200BD0A0F54070563808BF2E
:100420001C2005D0A0F500709F3814BF002032209A
:10043000411C0398381A0002C21700EB1260001228
:10044000884206DB0BEB45008AF800504578202DEA
:10045000C6D19AF8000089F80000202D1CBFA548DD
:1004600000EB881B00F03E81C5EBC50006EB800762
:100470006168D7F8088007F10800A8EB01010902BC
:10048000CA1701EB1261091227D4C089002800F0B5
:100490002981E089002840F02581D4F800A002F0ED
:1004A00043FCB0F5C67F08BF0D200BD0A0F540700F
:1004B000563808BF1C2005D0A0F500709F3814BF27
:1004C00000203220411CA8EB0A000002C21700EBFA
:1004D00012600012884280F2058189F80050387E4F
:1004E000217C884206D90BEB45004578202DBBD1F5
:1004F00000F0F8B89DF81C00C0EBC00006EB8000CF
:10050000C18AC568E1BBE189D1B3876802F00CFC00
:10051000B0F5C67F08BF0D200BD0A0F5407056384F
:1005200008BF1C2005D0A0F500709F3814BF002024
:100530003220411CE81B0002C21700EB12600012BF
:1005400088421DDA02F0F0FBB0F5C67F08BF0D202F
:100550000BD0A0F54070563808BF1C2005D0A0F580
:1005600000709F3814BF002032209DF81C10401CE2
:10057000C1EBC10106EB81018968084420F07F4589
:100580000898281A0002C11700EB11600012002819
:1005900003DD11B00020BDE8F08F2068A84202D929
:1005A000A168491CA16061680DF1180A081A284465
:1005B00025F07F4120F07F40C4E9001010980B9097
:1005C00009980DF11C0890F8205020208DF8180093
:1005D000202D3CD047490B9801EB801BC5EBC50093
:1005E00006EB800000F10801C0682768381A000295
:1005F000C21700EB1260001229D4E08900B3C88949
:10060000F0B9D1F8009002F08FFBB0F5C67F08BFBB
:100610000D200BD0A0F54070563808BF1C2005D027
:10062000A0F500709F3814BF00203220411CA7EBBA
:1006300009000002C21700EB12600012884206DBBC
:100640000BEB45008AF800504578202DC6D19AF86A
:10065000000088F800000B98202D1CBF254901EBF5
:10066000801B3FD0C5EBC50006EB80076068D7F85C
:10067000089007F10801A9EB00000002C21700EB87
:100680001260001222D4C88960B3E08950BBD4F84C
:1006900000A002F049FBB0F5C67F08BF0D200BD0CB
:1006A000A0F54070563808BF1C2005D0A0F500709A
:1006B0009F3814BF00203220411CA9EB0A00000221
:1006C000C21700EB1260001288420BDA88F8005063
:1006D000387E217C88427FF60DAF0BEB45004578D4
:1006E000202DBFD111B00120BDE8F08F800800207F
:1006F00080040020000800202DE9F84F0F46064630
:1007000001EB47004B4999460844924690F8204037
:1007100020201070A1F58068202C1CBF464800EBFB
:10072000871B38D0C4EBC40008EB800000F108013F
:10073000C0683568281A0002C21700EB1260001268
:1007400029D4F08900B3C889F0B90868009002F094
:10075000EBFAB0F5C67F08BF0D200BD0A0F54070B6
:10076000563808BF1C2005D0A0F500709F3814BF74
:1007700000203220411C0098281A0002C21700EB0A
:1007800012600012884206DB0BEB44008AF800403E
:100790004478202CC6D19AF8000089F80000202C5B
:1007A0001CBF254800EB871A40D000BFC4EBC40033
:1007B00008EB80077068BD6807F10801281A00027D
:1007C000C21700EB1260001222D4C88970B3F089FE
:1007D00060BBD6F800B002F0A7FAB0F5C67F08BF3C
:1007E0000D200BD0A0F54070563808BF1C2005D056
:1007F000A0F500709F3814BF00203220411CA5EBEB
:100800000B000002C21700EB1260001288420DDAE2
:1008100089F80040387E317C884202D80020BDE84B
:10082000F88F0AEB44004478202CBFD10120BDE8AA
:10083000F88F000080080020000800202DE9F74F05
:1008400098B015468B4601F03DFE044602F09EF836
:100850000646BBF1010F18BFBBF1020F05D040F6F1
:1008600092114FF0700002F0E5FBFF490120086093
:10087000FE498968086000208DF856000E90401EE1
:100880000F90FB49C5EBC50001EB8001D1E9020CDB
:10089000D1E90423CDE9100CCDE912238969149123
:1008A00003F019F90146BDF84E809DF84C00F14B5C
:1008B0004044421C881899424FD8EF4DAA4253DC5D
:1008C00069428A4258DB591C8142DCBF00F5F700BF
:1008D000A0F1F85005DD0028BCBFA0F5F70000F13D
:1008E000F8500C90E548B8F1000F808BADF854003B
:1008F00004BF00200B900BD001200B90DF4890F834
:100900002A0028B902F01EFB002808BF012700D0EA
:10091000002702F009FAB0F5C67F08BF0D200BD002
:10092000A0F54070563808BF1C2005D0A0F5007017
:100930009F3814BF002032204FF00009CA460990AA
:10094000464537D90C99DFF82C936FEA060C6B46B5
:1009500016AA01EB0C00494504D940F29E517020C3
:1009600002F068FBAC4504DD40F29F51702002F0BC
:1009700061FBC3498C4504DA4FF4B461702002F086
:1009800059FBC0498142DCBF00F5F700A0F1F850E7
:1009900005DD0028BCBFA0F5F70000F1F8501946AE
:1009A00001F0FEFA0098109920F07F400090081A9C
:1009B00020F07F49002F18BFDDF824A005D19DF855
:1009C0005400002818BF4FF0020AB4F1807F08D00D
:1009D0001098001B0002C11700EB116000120128E3
:1009E00002DA0320189D0DE057B1A44890F82B00BF
:1009F00030B19DF8540010F1000A18BF4FF0020A00
:100A00002546002082441098A0EB090020F07F4288
:100A1000501E20F07F40411B0902CB1701EB1361F0
:100A20000912514504DBB9F1000F18BF10922DE0F7
:100A3000B9F1000F05D09DF8550020B901F09CFFD9
:100A400008B1AFB90CE02FB99DF85400002818BFC9
:100A5000AAF1020A4FF000098DF854904E4607E0C3
:100A60009DF8540020B100208DF85400AAF1020A2C
:100A70001098A0EB0900401E20F07F40411B0902A6
:100A8000CA1701EB1261091251457CDB0A97054632
:100A90004FF000090B9F01F0EDFB281A0002C1176F
:100AA00000EB11604FEA202A02F03EF9B0F5C67F54
:100AB00008BF0D200BD0A0F54070563808BF1C2091
:100AC00005D0A0F500709F3814BF002032200B30F5
:100AD000824520DABBF1010F02D00A9840B112E042
:100AE000B4F1807F1CD140F61311702002F0A2FAFD
:100AF000B4F1807F07D0601B0002C11700EB1160CA
:100B00000012042804DD2C46204601F0D9FB07E042
:100B1000002864DC04E02C46204601F0D1FBB946F5
:100B2000B4F1807F56D01098119A001B121B20F050
:100B30007F4022F07F42012851D3B0F5000F98BFCB
:100B4000B2F5000F4BD8204602F0C5FF0C994A4A77
:100B50000D1A4FF0000AAA1A7AF1000218D3464B78
:100B6000421AD31A7AF1000312D3424BAB423EBF72
:100B7000C0F5902000F1F450451809D3934232D2C9
:100B8000C1F5902100E02AE001F1F451084445420A
:100B90003A4FB87F60B300BFBBF1010F05D0022010
:100BA00001F0CAFD012001F0C7FDB0452CD2A5EB34
:100BB00006014FF0020001F009FD90B3B8F1000FFB
:100BC0001CBFA5EB0801012034D000BF01F0FEFCE2
:100BD00038B32FE040F62621702002F02BFA1BB02C
:100BE0000020BDE8F08F40F6FA21702002F022FAD2
:100BF000B04534BF304640461E30A842CCDB40F6FC
:100C00003A21702002F016FA0CD9A5EB0801012058
:100C100001F0DCFC28B1002E1CBFA91B022009D06A
:100C2000D4E741E056EA080004D040F6761170207F
:100C300002F000FA2946002001F0C8FCA0B30B988E
:100C40000126002804BF97F82B00002802D0B9F134
:100C5000000F34D097F82A0018B102F06BF887F82B
:100C60002AA0B9F1000F0FE0080500401000002095
:100C700080040020FF7F841E0040420F8008002077
:100C800000C0BDF00080841E1CD00998201A20F0FE
:100C90007F41052001F09AFC60B397F82B000028F3
:100CA00008BF87F82B6015E0FFE7022001F044FD44
:100CB000012001F041FD1BB00020BDE8F08F97F846
:100CC0002A0090B197F82B0020B1052001F034FDE7
:100CD00087F82BA0A5EB0800A0F1190100290EDC74
:100CE00040F66321702002F0A5F902F03FF887F882
:100CF0002A60B6E74FF43E71702002F09BF90320A2
:100D000001F064FCC0B10F488068C0F800A00E4834
:100D1000C0F800A00EAC94E80F0038607960BA60AB
:100D2000FB6012AC94E80F0038617961BA61FB6135
:100D30001BB00120BDE8F08F40F66B21702002F05F
:100D400079F9000010000020080500402DE9FF4F50
:100D500014460D464FF0000A0A89514662F31F41BE
:100D6000AA7AD14662F30709EA7A064662F30F29A6
:100D70002A7883B04068C4F800A062F31749C4F829
:100D800004A0C4F81090C4E902019D4F7068A0FB54
:100D90000789306802F09FFE10EB08014AEB090258
:100DA00028784FEA6709C9F1000B70B1E08994F81F
:100DB0001180C043D5F804A004F10C0248457CDD45
:100DC00040F29F51702002F035F9DFF838C2D5E9C2
:100DD000040311EB0C0A42F1000CB0EB0A0A73EBAE
:100DE0000C0C72D2411A73EB02016ED3B0EB080601
:100DF000B7422BD8E089A6F1F458A8F59028C14352
:100E0000814A08EB010042452BD34945D8DC5945BE
:100E100066DB8742DCBF00F5F700A0F1F85005DD86
:100E20000028BCBFA0F5F70000F1F8506A4601A900
:100E300001F0B6F8E0899DF80010301A401A401E03
:100E4000B84202D3A068401CA0604646E0896E4BC1
:100E5000C1436D6894F81180701804F10C029E4231
:100E600004D940F29E51702002F0E4F84945A7DC15
:100E7000594535DB8742DCBF00F5F700A0F1F8509B
:100E800005DD0028BCBFA0F5F70000F1F8502146B1
:100E900001F086F8206820F07F417019401C216025
:100EA000B8F1000F08BF7A3004D0B8F1010F08BFC5
:100EB00048303AD101F058F801E00EE005E020F0AA
:100EC0007F40606007B0BDE8F08F3068401E20F0C2
:100ED0007F40206000F57A70F3E70146584504DA58
:100EE0004FF4B461702002F0A5F88742DCBFA1F195
:100EF000F450A0F5902005DD0028BCBF01F1F450AE
:100F000000F59020214601F04BF82068B8F1000F61
:100F100020F07F410AF10100216008BF7A3009D03A
:100F2000B8F1010F08BF483004D040F23961702099
:100F300002F080F801F018F820F07F416160B4F809
:100F40000E9001AA69464846376801F029F801F079
:100F50001DFD01F009F880462C4890F82D1020293D
:100F60002AD0C068401D20F07F4000BFD4E9002196
:100F7000891A014421F07F41C4E9000131688142AE
:100F800002D9A068401CA060326828692146069BEF
:100F9000FFF7FAF900281CBF07B0BDE8F08FD4E9CD
:100FA0000010401A316821603168084420F07F4009
:100FB000606007B0BDE8F08F0937B9F1000F16D0B7
:100FC00001F0C0FF98B901F0AFFEB0F5C67F08BFD1
:100FD0000D200BD0A0F54070563808BF1C2005D05E
:100FE000A0F500709F3814BF0020322007440098FD
:100FF000804584BFA8EB0000074427F07F40B5E799
:101000000080841E0040420FFF7F841E8008002065
:1010100070B51E4D95F82D00202818BF70BD95F8AD
:101020002C2002EB4200284490F82040202C27D0AE
:10103000174B03EB821101EB4401497880F8201033
:10104000FF2085F8290085F82D402146022000F078
:1010500091F8002085F82800A8770E49C4EBC40059
:1010600001EB8000007E002808BF02F059FB002041
:1010700009494968002908BF70BDBDE870400847AC
:1010800040F23231702001F0D5FF000080080020CE
:101090000008002080040020100000202DE9F05FEF
:1010A000DFF8C08098F82C5005EB4500404490F8DC
:1010B0002140202C08BFBDE8F09FDFF8ACB0DFF87E
:1010C000ACA0AAF560790AEB8517072617F814007B
:1010D00001280ED0042808BF02260AD005280CBF1C
:1010E0000326062805D040F6DD014FF0700001F020
:1010F000A1FFBBF1000F18BFAFF30080EFF310802A
:1011000072B607EB44014A7805EB4501414481F88A
:10111000212091F82220A24204BF202281F822201F
:10112000C0B12A462146012000F024F8C4EBC401D6
:1011300009EB810059F8212040683146904798F822
:101140002C5005EB4500404490F82140202CBAD1AA
:10115000BDE8F09F0648002818BFAFF3008062B6D4
:10116000DFE70000800800200000000000080020E9
:1011700000000000DFF858C010B500230CEB821C03
:1011800007281FD2DFE800F0050505050404040068
:1011900001230CF81100002B08BF10BD02EB420226
:1011A0000C48024492F8220020280EBF82F8211039
:1011B0000CEB4000417020200CEB4103587082F88A
:1011C000221010BD40F26E21702001F033FF0000AC
:1011D00000080020800800202DE9F05F0F468046BF
:1011E000DFF858A101EB47005044B8F1010F90F827
:1011F0002040254618BFB8F1020F05D040F6A121C6
:101200004FF0700001F016FF4FF0000B202D42D080
:101210009AF81E000026002808BF022601F02AF8CE
:10122000DFF81CC1C4EBC4010CEB81018A68C968FA
:10123000121A091A22F07F4221F07F41964299BF8B
:10124000B2F5000FB1F5000F3E4A02EB871920D925
:10125000224609EB42014C78202C12D0C4EBC40189
:101260000CEB81018B68C9681B1A091A23F07F43B4
:1012700021F07F419E429CBFB3F5000FB1F5000FF6
:10128000E6D8202A05D03B4620210420FFF740F86D
:101290000446AC4216D12C48002818BFAFF300809A
:1012A00000F0E8FF03469AF82E0020280DD0DAF867
:1012B0000800991C081A0002C11700EB1160001207
:1012C000002802DD0020BDE8F09F202D14D02A4622
:1012D00041461846FFF7B2FA00281EBF8AF82E5082
:1012E0000220BDE8F09F3B462A4620210420FFF75C
:1012F0000FF80020BDE8F09F9AF82A0018B101F01D
:1013000019FD8AF82AB09AF82B0020B1052001F0C7
:1013100013FA8AF82BB0042001F00EFA01F07CFADF
:1013200020208AF82E0009488068C0F800B00848DC
:10133000C0F800B00120BDE8F09F00008008002048
:1013400080040020000800200000000010000020A1
:10135000080500402DE9F04F694E07468DB096F81C
:101360002D008846202855D096F82D0006F1080457
:10137000C0EBC000A6F5806909EB800A20208DF83B
:10138000200096F82C000AAA00EB4000304409A97E
:1013900090F82050F06802903068384400F000FE69
:1013A000DAF80C000999652F084438D3554A002112
:1013B000D21B71EB010232D32268821A22F07F42E3
:1013C000B2F5000F2BD820F07F406060304684F8E3
:1013D000108090F82C000DF1200A202D1CBF4A49E6
:1013E00001EB801B50D000BFC5EBC50009EB8008A6
:1013F0006168D8F8086008F10800711A0902CA1774
:1014000001EB126109122DD4C08900283CD0E0897B
:1014100048B139E040F66831702001F00BFE0DB0A4
:101420000120BDE8F08F20680C9001F07DFCB0F544
:10143000C67F08BF0D200BD0A0F54070563808BFFE
:101440001C2005D0A0F500709F3814BF002032206A
:10145000411C0C98301A0002C21700EB12600012F7
:10146000884211DA8AF8005098F81810207C8142DE
:1014700005D8029860600DB00220BDE8F08F0BEB3C
:1014800045004578202DAFD1052001F055F91C4CC1
:101490004FF0FF30606094F82C309DF82020202120
:1014A000202A03D00520FEF733FF04E003EB4300BE
:1014B000204490F8200094F82C20134901EB82116D
:1014C00094F82D2001EB42014870206838442060D8
:1014D000FF2084F82900607E012805D1E068401EC5
:1014E00020F07F4000F08CFF9DF82000202803D0E2
:1014F0000648407801F06CFE0DB00020BDE8F08F8A
:10150000800800200040420F00080020100000204A
:1015100070B5244A92F82D1020293AD092F82D1057
:10152000A2F58063C1EBC10103EB810C92F82C1092
:1015300092F82C4001EB4101114491F82010A2F1E6
:10154000800505EB8414202928D0C1EBC10503EBED
:1015500085052D7E854284BF04EB41014978F2D890
:10156000C1EBC10103EB8101DCF80C008968146850
:10157000081A0002C11700EB1160001207D402F034
:10158000AAFA04F16501884224BF001B70BD002047
:1015900070BD40F63A31702001F04CFD4FF0FF3045
:1015A00070BD000080080020F8B56B4D6B4A05F552
:1015B0008064012694F82A1008287CD2DFE800F025
:1015C000047097A9C741AEB319B901F0CFFB84F8F5
:1015D0002A60E08A10B101F0B5FC80B1FFF718FD78
:1015E000FF2084F827006168B1F1FF3F03D0052098
:1015F00000F0ECFF40B1607E012810D109E040F618
:101600006901702001F016FD40F66E01702001F0B6
:1016100011FDE068401E20F07F4000F0F1FE94F8DC
:101620002D0094F82D10C0EBC00005EB8000406841
:10163000C1EBC10155F8212001B00121BDE8F04006
:10164000104794F82B0040B119B901F08FFB84F8D2
:101650002A60002084F82B00F8BDFFF7D9FC4FF07A
:10166000FF30606094F827008DF800009DF80000BE
:1016700088B194F82D0094F82D10C0EBC00005EB54
:1016800080004068C1EBC10155F8212001B006215E
:10169000BDE8F040104740F68501702001F0CAFC1B
:1016A000FFF7B6FC84F8266001F04CFC20B194F8FA
:1016B0002A0030B109E04AE040F69301702001F0C1
:1016C000B9FC01F053FB84F82A6094F82D0094F8DB
:1016D0002D10C0EBC00005EB80004068C1EBC101DC
:1016E00055F8212001B00021BDE8F040104701F07D
:1016F0002FF9E08A10B101F025FC28B101F03CF986
:10170000002818BF6677F8BD40F69D01702001F0F3
:1017100091FC1348066090680660F8BD1078BDE83B
:10172000F84001F055BDFFF773FC94F82D0094F8D4
:101730002D10C0EBC00005EB80004068C1EBC1017B
:1017400055F8212001B00521BDE8F04010474FF4C5
:101750000B61702001F06EFC80040020100000205E
:10176000080500402DE9F34F8246EF4895B0006828
:10177000EE4DC005C00D0ED0103840B20028B8BFE5
:1017800000F00F0000F1E020ACBF90F8000490F8EA
:10179000140D40090DD016984FF0000B007800286A
:1017A00018BF012818D040F23B714FF0700001F0D3
:1017B00041FC95F82D004FF0010B202807D016981A
:1017C000007848B140F23771702001F033FC40F2EC
:1017D0003471702001F02EFCD54C24B1002140F270
:1017E0003E70AFF300800020CDE91000D149CAEB74
:1017F000CA0001EB80004FF00109009024B10021E4
:1018000040F24970AFF30080B9F1000F0AD000BF79
:1018100095F82C604FF0000885F82980BBF1000F87
:1018200007D038E0C448002818BFAFF3008062B684
:10183000EEE73746012020EA0706C048402200EBC9
:10184000871100EB861002F088FA24B1002140F2E3
:101850005E50AFF3008007EB470106EB46002944DA
:1018600028440A8C028491F8221080F8221024B1B6
:10187000002140F26250AFF3008024B1002140F219
:101880005370AFF3008095F829008DF808009DF89B
:1018900008000028B2D124B1002140F25D70AFF3FE
:1018A000008002A800F0ECFCDDE90201CDE90E01A8
:1018B000334609AA0EA81699FFF748FA24B1002169
:1018C00040F26470AFF300809C4A0E9902EB8617D9
:1018D00009A817F81A20012A18BF022A38D1099A34
:1018E0000A9BA2EB010222F07F42A3EB0101CDF89B
:1018F000448021F07F41022A64D3B2F5000F98BFE3
:10190000B1F5000F5ED84FF0010814AB13AA3146B1
:10191000FEF7F2FE00285DD09DF84C109DF8502097
:1019200033468A425AD00520FEF7F2FC07EB4A0103
:1019300048709DF84C0020281CBF07EB400080F841
:1019400001A057D0324651465FF00300FFF712FC6A
:1019500024B1002140F26970AFF30080784800287C
:1019600018BFAFF30080EFF3108972B624B10021E5
:1019700040F26F70AFF3008095F829008DF80800F1
:101980009DF8080000287FF439AF24B1002140F20F
:101990007770AFF3008009AF009897E80E1000F160
:1019A0000807B8F1000F87E80E100D99816151D03A
:1019B00024B1002140F28470AFF30080BBF1000F2E
:1019C00039D11FE0324651460420FFF7D3FB4FF0D8
:1019D0000108BDE7324651460420B7E7202919BF68
:1019E00007EB4100407806EB4600284408BF90F81A
:1019F00020009BE706EB4601294481F820A0CDF8A2
:101A000044809FE7119810F0FF0F14D095F82D0037
:101A1000202810D124B1002140F28970AFF300805A
:101A200031460220FFF7D8FB109020B916980078B5
:101A3000E8B101282AD024B1002140F2A670AFF30A
:101A40000080FF20BBF1000F18BF85F8290026D0C9
:101A50004FF0010824B1002140F2B770AFF30080CD
:101A60001098384E022823D0012829D02DE024B127
:101A7000002140F29170AFF3008095F82C20514680
:101A80000420FFF777FB4FF00108E3E7002C3FF459
:101A9000B5AE002140F29C70AFF30080AEE695F841
:101AA0002C200121914385F82C1085F82900CFE7DF
:101AB000A8680E99401A02F00EF8716821B904E086
:101AC00071684FF0FF3001B18847B9F1000F24D0A1
:101AD00024B1002140F2C770AFF30080B8F1000FCD
:101AE00011D095F82C0000EB4000284490F821001C
:101AF000202808D024B1002140F2CE70AFF300803E
:101B0000707801F065FB24B1002140F2D370AFF38F
:101B1000008017B04046BDE8F08F0748002818BF86
:101B2000AFF3008062B6D3E704ED00E08008002048
:101B300000000000800400200000000000080020D9
:101B4000000000001000002070B50D46064601F0B0
:101B5000E7F90F4890F82C200024803800EB821021
:101B600010F8141029B1611CCCB2202CF8D320201D
:101B700070BD0848C4EBC40140F8216000EB81004F
:101B8000214645600120FFF7F5FA204670BD0000B0
:101B900080080020800400202DE9F04F83B000F081
:101BA00069FB054600F038FE844C6068B0F1FF3FE9
:101BB0001CBF4FF0FF306060A07FDFF8049290B947
:101BC000D4E90210401A20F07F404FF40C7101F06C
:101BD000B5FFE1680844281A0002C11700EB116044
:101BE0000012C00F12D0607E20B394F827008DF849
:101BF00000009DF80000E8B100F06AFC94F82800AD
:101C0000F0B140F2F531702001F014FA94F82D0093
:101C100094F82D10C0EBC00009EB80004068C1EBC8
:101C2000C10159F821200821904740F2DD31702090
:101C300001F000FAE81C20F07F4000F041FBDDE7F6
:101C4000012084F8280094F82D00202821D094F851
:101C50002D80202084F82D0084F82E00002084F8A8
:101C6000260084F82700206000F096FE207794F884
:101C70002C6006EB4600071997F82000202858D062
:101C8000C0EBC00009EB800999F81A00012805D0C3
:101C90004FE04FF47E71702001F0CCF9B9F816B026
:101CA00001AA6946584600F07BF900F06FFE00F08B
:101CB0005BF994F82D00202804D0E068401D20F046
:101CC0007F401DE005F1090ABBF1000F16D001F0BD
:101CD00039F998B901F028F8B0F5C67F08BF0D2092
:101CE0000BD0A0F54070563808BF1C2005D0A0F5D9
:101CF00000709F3814BF0020322082442AF07F40B9
:101D0000D9F80820811A0902CB1701EB13610912D7
:101D100000290EDC09F10803824202D29968491EAB
:101D20009960D3E90021891A1860084420F07F40A7
:101D3000586031460120FFF74FFA5FEA0009F8D0FA
:101D4000204800EB861010F81800022804D1324613
:101D500041460620FFF70EFAFF2084F8290097F885
:101D60002100194E20281CBF707801F031FA207F25
:101D700020B100F0EDFD002020776077B9F1020F6F
:101D800011D0B9F1010F1CBF03B0BDE8F08F4FF0C7
:101D9000FF307168002904BF03B0BDE8F08F03B0C5
:101DA000BDE8F04F0847A068401B01F094FE716841
:101DB0000029F4D103B0BDE8F08F000080080020B6
:101DC00080040020000800201000002070B5424C64
:101DD000054682B094F82D00202808D06068B0F144
:101DE000FF3F09D040F6D921702001F023F940F6D9
:101DF000D821702001F01EF994F82D003749C0EB6E
:101E0000C00001EB8006B06801F065FE0246F08A72
:101E1000317D334B0844401C11189A4217D8314A7F
:101E200090421BDCC2F1000C60451EDB56008E4266
:101E3000DCBF01F5F701A1F1F85105DD0029BCBFB8
:101E4000A1F5F70101F1F8514819994204D940F27E
:101E50009E51702001F0EEF8954204DD40F29F5152
:101E6000702001F0E7F8654504DA4FF4B4617020A2
:101E700001F0E0F88642DCBF00F5F700A0F1F85071
:101E800005DD0028BCBFA0F5F70000F1F85001AA5D
:101E9000694600F085F89DF804000F288CBF0120EA
:101EA00000200099084420F07F41616094F82700E9
:101EB0008DF800009DF80000002804BF02B070BD3E
:101EC000052000F083FB00281CBF02B070BD4FF45A
:101ED0002E61702001F0AEF8800800208004002000
:101EE000FF7F841E0040420F70B51C4C202184F8F7
:101EF000201084F8211084F82210002084F82C008F
:101F000084F82D10421EC4E90002A07784F8260050
:101F100084F827002077607784F82E1084F82A0050
:101F200084F82B00A4F182011022887001F8040FBC
:101F3000521EFAD100F03AFD094D012684F82860BE
:101F4000FF202870074801F025F9687001F080F93A
:101F5000A86000F0B5FC84F82F6070BD80080020F8
:101F6000100000209D100000410B48F237625143E1
:101F70000A0C094B510202FB03020848504300F5CA
:101F800086306E30400D5B4210FB03F3B2EB532FF3
:101F900088BF491C08447047F7C2FFFF6F0C01005F
:101FA000430B48F2376C03FB0CF330B41B0CDFF827
:101FB00044C05C0203FB0C030F4858434FEA505CDB
:101FC00004EB0C0043F609541CFB04F404F5807C7C
:101FD00043F60855A3EB5C2C2C440CF0FF0CB3EB40
:101FE000542F84BF4FF0000C401C086082F800C0E2
:101FF00030BC7047F7C2FFFF6F0C01002DE9F041C4
:102000003B4DD5F80403DFF8EC8010F4803F4FF42B
:1020100000664FF0E0274FF0000419D03648006802
:10202000B0B1C5F84041C7F88062D5F84005D8F88E
:102030000010401A20F07F40022802D3B0F5000FB4
:1020400006D94FF48030C5F808030420FFF7ACFA36
:10205000D5F8040310F4003F1AD028480068B8B13E
:10206000C5F84441C7F880622548D0F84005D8F843
:102070000010401A20F07F40022802D3B0F5000F74
:1020800006D94FF40030C5F808030520FFF78CFA95
:10209000D5F8040310F4802F1AD01A480068B8B19C
:1020A000C5F84841C7F880621748D0F84005D8F80D
:1020B0000010401A20F07F40022802D3B0F5000F34
:1020C00006D94FF48020C5F808030620FFF76CFA04
:1020D000D5F80401002808BFBDE8F081C5F8044127
:1020E000C7F880620948C168491CC160BDE8F08139
:1020F00000B0004004B5004040B1004044B1004091
:1021000004B0004048B1004008B000401C0000206E
:102110002DE9F041384D2878042868D0A81C012208
:10212000017859B1012908BF6A7002D06978002985
:1021300058D002210170407800F0FEFA2F4CD4F8FC
:1021400004034FF0000810F4002F4FF480774FF095
:10215000E0260AD02A48006838B1032000F0ECFAE3
:10216000C6F880720320FFF71FFAD4F8040310F4B6
:10217000802F0AD02348006838B1022000F0DCFA32
:10218000C6F880720220FFF70FFAD4F8040310F4A7
:10219000003F0AD01C48006838B1012000F0CCFA9A
:1021A000C6F880720120FFF7FFF9D4F8040310F499
:1021B000803F08BFBDE8F08114480068002808BFD0
:1021C000BDE8F081002000F0B7FAC6F88072042064
:1021D0002870C5F80480C4F80082BDE8F0410020F2
:1021E000FFF7E2B940F2A3416C2000F023FFBDE805
:1021F000F0410720FFF7D8B91C0000200080004004
:102200004C810040488100404481004040810040B2
:10221000012211024FF0E0230020C3F8801103F5E2
:10222000C073BFF34F8FBFF36F8FC3F800110E4918
:1022300041F8042F431EC1F80433C1F83C05C1F82E
:102240003C010A4BC3F84005C1F840011B1DC3F80F
:102250004005C1F844011B1DC3F84005C1F8480101
:10226000CA60034948707047008000400480004005
:102270001C000020014800687047000004B50040C1
:1022800030B4EFF3108C72B600250B4B0B4A00BF35
:10229000D3F80415D3F804412CB1D168491CD1609E
:1022A000C3F80451F4E7D268BCF1000F00D162B664
:1022B000C0E9001230BC704700B000401C00002094
:1022C0002DE9F047464E0546B71E3378B968012B15
:1022D00004BFA942BDE8F0874FF04040414A10607A
:1022E000424A4148C2F8080302F1040C4FF00004CE
:1022F000002B62D03E48C2F84803CCF84045C2F8F3
:10230000444100BFD2F848014FF0E0294FF00108E6
:10231000002801BFD2F8040100284FF40060C9F87A
:1023200080024FF48030C2F80803C2F84803C2F8B4
:1023300040413048D0F800C0A5EB0C0C2CF07F4C8D
:10234000BCF1020F44D3BCF5000F41D8C2F8405590
:102350004FF4803CC2F844C32BB102688A1A22F0C1
:102360007F42022AF9D3C7F804803C70FFF750FF80
:102370002148D0F8041564F30101C0F80415D0F821
:102380000825022161F30102C0F808250421C0F8E4
:102390001015C0F80C807968C0F800128015C9F8D3
:1023A0008002C9F800011549C00508600420BD601D
:1023B000707086F80080BDE8F087C2F84803C2F864
:1023C0004045C2F84041CCF84045C2F8444199E745
:1023D0000020C2F8400540F297216C2000F02AFE50
:1023E0001E00002008F50140FDFFFBFF00B000408B
:1023F000FDFFFAFF04B500400080004004F50140F5
:1024000070B52A4CA168814214BF01220022DFF876
:10241000A0C09CF80050022D02D0002A34D002E067
:10242000002A08BF70BD62789AB3224B4FF08042F9
:102430001A60214B9213C3F80823C3F848230022E3
:10244000C3F840211D4A1668861B26F07F46022EDF
:1024500024D3B6F5000F21D8C3F840054FF48036D9
:10246000C3F844632DB11368CB1A23F07F43022BCA
:10247000F9D3134B02214A071A60A06004208CF89C
:1024800001008CF8001070BD40F2A5216C2000F016
:10249000D1FD40F2A9216C2000F0CCFD0020C3F852
:1024A000400540F2B5216C2000F0C4FD1C00002066
:1024B0001E00002008F5014000B0004004B50040B7
:1024C00004F5014001488068704700001C000020AE
:1024D0002DE9F0413648354AC0F80823DFF8D4C06A
:1024E000031D00219CF8004084B1334AC0F8482302
:1024F000C3F84015C0F84411D0F848210123002A40
:1025000004BFD0F80401002811D10AE0C0F8482324
:10251000C0F84015C0F84011C3F84015C0F8441188
:10252000EAE74FF0E0224FF40060C2F88002022C8C
:1025300004D040F2C1216C2000F07CFD1F4E3068B9
:102540001F4CC01C20F07F40A2681E4D90420BD053
:102550003768D71B27F07F47042F05D3B7F5000F47
:1025600002D8FFF7ADFE1BE03068101A20F07F4064
:10257000022813D3B0F5000F10D8134A4FF0804053
:102580001060636021706B60EB604000111F086099
:1025900004208CF801008CF8003001E063602170A9
:1025A0006068C5F80002BDE8F0810000FDFFFBFF98
:1025B00000B000401E000020FDFFFAFF04B50040FF
:1025C0001C0000200080004008F501402DE9F0418A
:1025D000544A0025012492F800C053784FF4A076A5
:1025E00007287DD2DFE800F004040404585858009E
:1025F0004D4A9768B7F1807F04BF5278002A03D014
:10260000BCF1020F05D026E040F251316C2000F001
:1026100011FD1A1FD2B206EB820202F1804606F5C6
:1026200030460022BCF1010F03D0BCF1020F08D0EC
:102630000EE0042B24BF3768002F08BF4FF0004284
:1026400006E0042B24BF3768002F08BF42F0804209
:1026500012F0804FE5D1DFF8D4C000F1100204FA87
:1026600002F2CCF808234FF0400303EB8003DBB207
:1026700063441C600CEB8000D0F84035A1EB0303F1
:1026800023F07F43032B26BFC0F84015CCF804236A
:10269000C0F8405537D23CE0BCF1000F06D0834271
:1026A00004D140F271316C2000F0C4FC021FD3B29F
:1026B000032B04D34FF4E6716C2000F0BBFCDFF871
:1026C00070C003F1100204FA02F2CCF80823CCF82F
:1026D000482306EB83034CF80350164B1B6800E0BD
:1026E0001AE0001FCB1A23F07F43C0B20CEB80002E
:1026F000022B0BD3B3F5000F08D8C0F84015CCF867
:102700000423CCF844230120BDE8F0810021C0F867
:1027100040150020BDE8F08140F275316C2000F0DA
:1027200089FC00001E0000201C00002000800040EA
:1027300000B0004004B500402DE9F8430126002711
:102740004FF4A078072851D2DFE800F00404040415
:102750001919190000F1100106FA01F22649C1F811
:10276000082301EB80030022C3F8402508EB800218
:102770008F50224951F820000090BDE8F883204D89
:10278000011FCCB2297879B16A7882420CD11D4AF6
:102790004FF040401060012908BFFFF739FD2F704E
:1027A00019494FF080708860184904F1100006FA4A
:1027B00000F0C1F80803C1F84803A0000844D0F8AD
:1027C0004005134A1268801A20F07F40022807D380
:1027D00001EB84020020C2F8400508EB84000F5092
:1027E0000C4850F824000090BDE8F88340F2F9311D
:1027F0006C2000F01FFC0000008000404081004081
:102800001E00002008F501401C00002000B0004020
:1028100004B5004040B100402548244AC0F80823D0
:102820002449031D91F800C00021BCF1000F10D015
:10283000214AC0F84823C3F84015C0F8441100BF2E
:10284000D0F84821002A04BFD0F80401002811D193
:102850000AE0C0F84823C0F84015C0F84011C3F89A
:102860004015C0F84411EBE74FF0E0224FF4006050
:10287000C2F8800211484FF0FF32C0F80823C0F8B8
:102880004015C0F8401100F10402C2F84015C0F82C
:10289000441102F10402C2F84015C0F8481102F1D7
:1028A0000402C2F84015C0F84C117047FDFFFBFF51
:1028B00000B000401E000020FDFFFAFF0080004035
:1028C00070B51F48002404210470801E0170890522
:1028D000C4608160FFF79CFC01254FF0E02CEB0207
:1028E000CCF88031BFF34F8FBFF36F8FCCF88032BD
:1028F00014484560856014490A68002AFCD1511EBD
:10290000C0F80813C0F84813C0F84045C0F840416B
:102910000E49C1F84045C0F84441091DC1F8404581
:10292000C0F84841C0F80441CCF8003105604FF4CC
:102930008271C0F844130221C0F8041370BD000076
:102940001E00002000B0004004B5004004B000406C
:10295000084890F900000028B8BF704700F01F0138
:10296000012202FA01F14009800000F1E020C0F8E4
:1029700000127047800000200348007803280CBF35
:1029800001200020704700007C00002001484088A2
:10299000704700007C00002003480078022816BF22
:1029A00003280120002070477C00002002480021FD
:1029B00001704180704700007C0000202DE9F0414B
:1029C000164C607A002827D04FF480718D05284678
:1029D00001F0D8F880464FF48271284601F0D2F811
:1029E00000260746B8F1000F09D00120C5F80803FA
:1029F000207920B12671E06908B18047E66137B1DE
:102A0000C5F804610220C5F8080300F047FA404603
:102A1000BDE8F04100F058B8BDE8F0812C0000207E
:102A200010B501F059F930B901F077F918B901F092
:102A30008AF9002802D002490220086010BD000077
:102A4000340C004070B500F091F900F07BFA094CAD
:102A50004FF0804530B1FFF7E3FF012028610420EB
:102A6000A07204E00320A0720120C5F80403002036
:102A7000E07170BD2C00002070B5124CA079E0B15F
:102A8000E179401E814218DA00F05CFA054600F058
:102A90003FFBA179012902D9E179491CE1710DB10E
:102AA000616900E02169411A022902DA11F1020F7D
:102AB00007DC0DB1606100E02061BDE87040FFF708
:102AC000C1BF70BD2C0000202DE9F04706464FF035
:102AD00080454FF48671284601F054F880464FF443
:102AE0008871284601F04EF8274C8246277804F179
:102AF000080001F0BBF810B140F2B91116E04FF038
:102B0000010946B1A07A032805D10420A072FFF77D
:102B100087FFC5F810900026B8F1000F18D0C5F84F
:102B20000C61A07A042804D040F2CB116D2000F093
:102B300081FA01F0D1F828B901F0EFF810B901F0ED
:102B400002F908B1114806600220A07200F0F2F804
:102B5000BAF1000F08D0C5F81061A07A022801D19F
:102B6000FFF78AFFC5F814903FB12670A07A0228BB
:102B700001D1FFF767FF00F0DDF8BDE8F04702483C
:102B8000083001F08AB800002C000020340C00400E
:102B90002DE9F0475F4C00270646A761427881780F
:102BA0000078E0726271A171E7714FF001084FF097
:102BB0008045052825D2DFE800F01003062022001A
:102BC000C4F8188009E000F0D1F80121284600F08F
:102BD000DEFF0028F9D00220A06101F004F8B0B1B6
:102BE00000F0CAF9217E01F0030188420FD1B079CB
:102BF00050B10220C5F8040370E04748ECE74748AD
:102C0000EAE740F23A314DE000F08AF966E0C5F8B3
:102C10000C804FF4827AC5F80471A069C5F81805D4
:102C200001F046F840B901F04DF828B901F061F81B
:102C300010B901F072F838B14FF08050D0F844026A
:102C40003749C0F34230086001F032F840B901F072
:102C500039F828B901F04DF810B901F05EF818B153
:102C60002F491031C1F80080C5F808800220C5F84E
:102C70000403B07990BBD5F8040310F0020F0FD015
:102C8000DFF8A090D9F80010C94341F3001101F119
:102C90000108D9F8001041F01001C9F8001007E050
:102CA00040F2FB216D2000F0C5F900BF00F0E6FA0C
:102CB0005146284600F066FF0028F7D000F030F9B2
:102CC000B8F1000F05D1D9F8001021F01001C9F8B2
:102CD00000100220C5F80803C5F80471A07970B18E
:102CE000307860B900F02EF9064600F011FA6FF066
:102CF000004116B1C4E9041001E0C4E90401012156
:102D0000284600F044FF08B100F016F9A772BDE8AC
:102D1000F08700002C0000200100020001000300E9
:102D20003C05004010ED00E00148C08970470000FC
:102D30002C00002010B5EFF3108472B60A484178D9
:102D400029B14178491E4170417829B108E04FF41A
:102D50008E716D2000F06EF9807808B900F000F9EE
:102D6000002C00D162B610BD2C00002010B5EFF38E
:102D7000108472B606484178491C41704078012899
:102D800001D100F01BFF002C00D162B610BD000085
:102D90002C000020054810B5C17821B10021017137
:102DA000C170FFF7C7FF002010BD00002C000020FD
:102DB00070B50C4CE17861B90125E570E061FFF771
:102DC000D5FF00F0BFF830B1E06910B180470020B6
:102DD000E061002070BD4FF080402571C0F80453C1
:102DE000F7E700002C0000202DE9F04105006FF00E
:102DF00015003FD0297804293CD8002969783BD0B8
:102E0000002937D1A978002934D1002000F085FEAF
:102E1000002000F075FE4FF080484FF0FF31C8F8F9
:102E200008130026C8F80061C8F80461C8F80C61EE
:102E3000C8F81061144C6670A888A08100F0B5FE37
:102E4000012708B1E77067700121404600F09FFE3E
:102E500008B100F071F840F2F550E0812846FFF724
:102E600097FE6772002000F04BFE4FF0E0213046E5
:102E7000C1F80071BDE8F0810029FBD02029F9D804
:102E8000A9782129C1D9F5E72C0000200248807AD1
:102E9000002800D0012070472C000020F8B51F4DFD
:102EA000E87A00280FD1287E00F0030000F08BFEA6
:102EB000002808D0EFF3108172B6FFF7E7FF18B1D2
:102EC000002900D162B6F8BD0126AE7201B962B622
:102ED00018204FF08044C4F80803A6614FF4207016
:102EE000ADF80000BDF80000411EADF80010F9D2A9
:102EF0000027C4F80C71C4F810710848083000F0BD
:102F0000C8FE2F70FFF79EFD6661687900F07F00B4
:102F1000C4F838051820C4F80403F8BD2C000020BC
:102F200010B5044C207E00F0030000F04CFE002899
:102F3000F8D010BD2C000020014901200870704716
:102F4000810000204FF08040D0F8000118B90348FC
:102F50000078002800D00120704700008100002088
:102F60004FF08040012141600021C0F8001101486C
:102F700001707047810000200248006800F00300E3
:102F8000704700001C04004010B531B1012907D082
:102F900040F2023105A000F021F8D0F8140401E05D
:102FA000D0F8080400F0010010BD00006E72665FEA
:102FB000636C6F636B2E6800BFF34F8F0548016829
:102FC000054A01F4E06111430160BFF34F8F00BF78
:102FD000FDE700000CED00E00400FA0572B6034ABC
:102FE000526802B19047FFF7E7FF00004C00002055
:102FF000064810B50021016001210160084600F07B
:1030000009FEBDE81040012000F0F7BDFC1F0040A4
:10301000074810B501214160891EC0F808130C2033
:1030200000F0F8FDBDE810400C2000F0E6BD000007
:1030300000C000400EB572B60F4A5568D5B10022E7
:1030400003466E460A2403E0B0FBF4F0521CD2B2F1
:103050000028F9D1B05409E0B3FBF4F004FB1030C0
:10306000B3FBF4F3521ED2B23030B054002AF3D185
:103070003046A847FFF7A0FF4C0000202DE9F041A3
:10308000184C0646174660780D4618B14FF0FF30D1
:10309000BDE8F081FDF79EF806B9134E6760257014
:1030A000FFF7A6FFFFF7B4FF3046FFF79DFE0600CF
:1030B000EED1FEF719FFFFF7F1FE00F0FCFC284609
:1030C00000F09BFD0120002D09DB05F01F0100FA37
:1030D00001F16A09920002F1E022C2F80011607069
:1030E0003046D5E74C000020363C0000074890F9F8
:1030F0000000002809DB00F01F0201219140400977
:10310000800000F1E020C0F8001270474C00002061
:103110002DE9F04101264FF0E02231034FF0000885
:103120004046C2F88011BFF34F8FBFF36F8F164C2C
:10313000C4F800010C2000F08CFD144D2868C04339
:1031400040F30017286840F010002860C4F80463BA
:1031500026607F1C02E000BF00F090F8D4F8000168
:103160000028F9D01FB9286820F01000286008480E
:1031700005686660C4F80863C4F800810C2000F09C
:1031800068FD2846BDE8F08100C0004010ED00E079
:1031900008C5004010B5024605200C4904E000BFF8
:1031A00001EBC0031B7933B1401EC0B2F8D24821F5
:1031B0006920FFF73FFF41F8302001EBC0010022FA
:1031C0004A718A7101220A7110BD0000B008002006
:1031D00010B5052801D3582106E00A4901EBC000CB
:1031E0000179012903D059216920FFF723FF417993
:1031F0008279491CC9B28A4200D04171BDE81040B1
:10320000FFF774BFB008002070B505250E4E0F4CB7
:1032100016E0217806EBC1000279012A08D1427933
:1032200083799A4204D04279827156F831008047FE
:103230002078401CC0B22070052801D300202070E7
:103240006D1EEDB2E5D270BDB008002082000020F6
:1032500000B500F02DFD40B900F034FD28B900F0B4
:1032600048FD10B900F059FD08B1024800BD024800
:1032700000BD00000C05004000E7014010B500F063
:103280004CFD30B3EFF31080C8B1002172B6124884
:1032900002680368C2F3001243F0100303604FF0AA
:1032A000E023D3F80042D3F804321C4300D040BFDF
:1032B00020BF00BF00BF00BF00BF12B105E0012169
:1032C000E4E7026822F010020260002900D062B632
:1032D00010BD20BF10BD000010ED00E001490968DD
:1032E00089680847540000200149096809690847AE
:1032F0005400002001480068406800475400002046
:10330000014909680968084754000020233F00006C
:103310001B3F00000F3F00001F3F0000173F000051
:10332000094810B58178042908D010290AD020292D
:1033300008D040F2CD116B20FFF77CFE1021817088
:103340000BF0DEFF10BD0000580000200B4810B548
:10335000017831B1EFF3108472B68178102905D06D
:1033600008E040F21B316B20FFF764FE08218170FA
:10337000FEF712FC002C00D162B610BD58000020F0
:1033800070B5124C207858B1EFF3108572B66079A1
:1033900048B1022809D04FF439716B20FFF74AFE7B
:1033A00040F2D121F9E7012003E0A17800200429AF
:1033B00001D0607102E060710BF092FF05B962B656
:1033C000E078BDE87040FFF703BF00005800002020
:1033D0000E4810B5017859B1EFF3108172B64279F9
:1033E0004AB1012A09D04FF443716B20FFF722FE46
:1033F0004FF43F71F9E7022200E00022427101B967
:1034000062B6C078BDE81040FFF7E2BE5800002069
:1034100010B5134C207810B140F28D211DE0002032
:1034200060700120A0700F484FF4C8510160052161
:103430000181B72141810C4941600C48FFF7AAFE88
:10344000E07000210A48FEF77FFB2071202802D09F
:103450000120207010BD4FF427716B20FFF7EAFDAB
:103460005800002060040020FF3F420F9935000003
:10347000C9340000114810B58178042901D000201A
:1034800010BD8079A8B1FEF7F5FE441C012000F0C4
:103490002FFB001B0002C11700EB11600012002877
:1034A00000DC00200649A0FB0101C00B40EA4140BE
:1034B00010BD044801684089081A10BD580000205A
:1034C00040420F006004002070B50E46FEF7D2FEA9
:1034D00000252E4C082E31D2DFE806F030043B3BAD
:1034E000211C4C410121022000F000F9607858B104
:1034F0000420A07026480068A060A57160790228A9
:103500003FD00BF0EDFE3CE02020A070BDE8704005
:10351000FEF742BB40F215216B20FFF78BFD607870
:1035200000280BD0A078042809D04FF0E021022019
:10353000C1F88001BFF34F8FBFF36F8F70BD00F0F4
:1035400073F818B11348D0F84401B0B907F0A2FAE3
:1035500070BD0121022004E00120A07070BD012196
:10356000282000F0C3F860780028F5D0BDE870404E
:1035700000F096B800F058F818B1BDE87040FFF7B9
:10358000CFBEBDE8704000F057B8000058000020E2
:103590006004002000B0004070B5EFF3108472B6F4
:1035A000204D002069796871C1B3012906D0022934
:1035B00018D084F310884FF4D77128E084F3108872
:1035C000687810B140F25B1121E00021142000F076
:1035D0008DF801206870A878012821D1BDE87040DD
:1035E00000F05EB8697849B16870A878082815D0ED
:1035F00007DC022812D0042807D10BE04FF4B67183
:1036000005E0102806D0202808D04FF4C4716B20A4
:10361000FFF710FD2020A870FEF7BEFA84F3108893
:1036200070BD00005800002002488079012800D0B9
:10363000002070475800002070B50320FDF768FF98
:10364000154D2968814200D8084606460321FDF73A
:1036500081FE124C012130B1012818D04FF4A7711E
:103660006B20FFF7E7FC2868B042A06806D1FEF7A0
:10367000ADFB2868A1680844A06070BD3044A0601C
:10368000A1716989401ABDE87040FEF79FBBA17126
:103690006889A168081AF6E7600400205800002035
:1036A00010B5182200210F4800F0D1FB0D48012170
:1036B0000170002101810321817200F118010A6863
:1036C000426049680161084802218170054900791A
:1036D000FEF748F8002804D14FF483716B20FFF700
:1036E000A9FC10BD48040020580000200B4A10B56A
:1036F000927812B1531E1A4201D0E02109E021B1A3
:103700000240900608D1E52103E08243900603D1F0
:10371000E9216B20FFF78EFC10BD0000580000204F
:10372000014901208870704764000020A53F000017
:10373000DD3F0000C73F0000B53F0000C13F000073
:10374000AF3F0000A33F0000A13F0000D93F0000B1
:10375000CD3F0000BB3F0000A93F00009B3F0000A1
:10376000933F0000973F00008D3F00000148006834
:10377000C06B004778000020014A1268126B1047A6
:10378000780000200149096889690847780000200D
:103790000148006800680047780000200148006880
:1037A0004069004778000020014A1268D26810473B
:1037B0007800002001480068006900477800002078
:1037C000014A126892681047780000200149096890
:1037D000496A084778000020014B1B685B6818475E
:1037E0007800002001480078704700008300002026
:1037F0002DE9F04786468C460846089E15467446D5
:103800001946002B40F0C2808542B2FA82F245D9B7
:103810004AB1C2F1200300FA02FC2EFA03F39540EC
:1038200043EA0C0C94404FEA154EA8B2BCFBFEF8DC
:10383000230C0EFB18CC08FB00F943EA0C43994516
:1038400028D9EB1808F1FF3704D2994502D9A8F11D
:1038500002072B44A3EB0903A4B2B3FBFEFC0EFB4F
:103860001C330CFB00F044EA0344A04214D92C1989
:103870000CF1FF3304D2A04202D9ACF102032C4474
:10388000241A43EA07401EB1D44000233460736019
:10389000BDE8F0874746DDE76346F1E792BB431B8F
:1038A00001214FEA154EAFB2B3FBFEFC200C0EFB1C
:1038B0001C330CFB07F840EA0343984562D9EB1828
:1038C0000CF1FF3004D2984502D9ACF102002B4430
:1038D000A3EB0803A4B2B3FBFEFC0EFB1C330CFBF2
:1038E00007F744EA0344A7424ED92C190CF1FF33E1
:1038F00004D2A74202D9ACF102032C44E41B43EAF0
:103900000040C0E7C2F1200320FA03F19540904047
:103910002EFA03F303434FEA154EAFB2B1FBFEFCA0
:103920000EFB1C10190C0CFB07F841EA00418845FE
:1039300004FA02F422D969180CF1FF3004D2884548
:1039400002D9ACF102002944A1EB08019BB2B1FB02
:10395000FEFC0EFB1C110CFB07F743EA01439F42E0
:103960000ED9EB180CF1FF3104D29F4202D9ACF111
:1039700002012B44DB1B41EA004192E76046E3E78A
:103980006146F7E76046A3E76346B7E7834206D997
:1039900016B9002108467BE7C6E900E0F9E7B3FA6B
:1039A00083F78FB9834201D3724508D8BEEB020476
:1039B00060EB030301209C461EB9002168E73846EE
:1039C000FAE7C6E9004CF8E7C7F1200CBB4022FA41
:1039D0000CF41C432EFA0CF120FA0CF3B84001430E
:1039E0004FEA14490EFA07F5B3FBF9F81FFA84FE03
:1039F00009FB18300B0C08FB0EFA43EA00439A450A
:103A000002FA07F240D9E31808F1FF3004D29A45D0
:103A100002D9A8F102002344A3EB0A0389B2B3FB45
:103A2000F9F809FB183308FB0EFE41EA03418E4505
:103A30002CD9611808F1FF3304D28E4502D9A8F1C0
:103A40000203214443EA0040A0FB0298A1EB0E01CF
:103A50004145CE46434602D306D14D4504D2B9EB8B
:103A6000020E68EB04030138002EA6D0B5EB0E025F
:103A700061EB030101FA0CFC22FA07F34CEA0303A1
:103A8000F940C6E9003198E74046C5E74346D9E723
:103A9000042802D24FF02800704702D14FF01000E6
:103AA00070474FF000007047002180F8261000F8A2
:103AB000241F4170704770B5FCF7F6FB05460024E3
:103AC00006E02046FCF7F6FBFFF7EEFF641CE4B2CD
:103AD000AC42F6D370BD410A43F609525143C0F3DC
:103AE000080010FB02F000F5807001EB50207047D9
:103AF000800000F1804000F53040D0F8400570476C
:103B0000002809DB00F01F020121914040098000DC
:103B100000F1E020C0F88012704700280DDB00F0B3
:103B20001F02012191404009800000F1E020C0F80F
:103B30008011BFF34F8FBFF36F8F704770B5024690
:103B4000002000291DD0A2FB0101400A40EAC1501B
:103B5000490A401C41F1000140F2A172831841F171
:103B600000015B1C41F100040021D3F1FF33A141AE
:103B700003D272216D20FFF75DFA00F5F460B0FB0F
:103B8000F2F070BD4058002800D001207047D0F8F6
:103B90000C24D0F80C0402F00102C00303D58A42C1
:103BA00001D1012070470020704710B5012188071E
:103BB000FFF7EAF9002800D0012010BD4FF0804047
:103BC0000121016070474FF08041D1F81824D1F8ED
:103BD000181402F00302C90303D5824201D1012067
:103BE00070470020704710B500214FF08040FFF76C
:103BF000CBF9002800D0012010BD002809DB00F01F
:103C00001F02012191404009800000F1E020C0F82E
:103C10008012704700280DDB00F01F020121914047
:103C20004009800000F1E020C0F88011BFF34F8F01
:103C3000BFF36F8F704700100200FA000000B8ED6C
:103C40004DAAF20E0232EAB5DE2F50D1B75AB5D2E4
:103C5000C741002809DB00F01F0201219140400903
:103C6000800000F1E020C0F880127047EFF310816F
:103C700072B60278012A01D0012200E0002201235D
:103C8000037001B962B60AB1002070476FF02200DC
:103C900070470021017008467047EFF3108172B63B
:103CA0000022027001B962B600207047FFF7ACBA7B
:103CB0004FF08050D0F830010F2801D0002070471D
:103CC000012070474FF08050D0F830010A2801D011
:103CD000002070470120704700B5FFF7F3FF20B1C7
:103CE0004FF08050D0F8340108B1002000BD012011
:103CF00000BD4FF08050D0F830010E2801D00020D8
:103D00007047012070474FF08050D0F830011028E4
:103D100001D000207047012070474FF08050D0F84C
:103D20003001062803D0401C01D00020704701203C
:103D300070474FF08050D0F830010D2801D000209E
:103D40007047012070474FF08050D0F830010828AC
:103D500001D00020704701207047F0B480EA010CC8
:103D600003461CF0030F3CD113F0030F0BD0002AC5
:103D700004BFF0BC704711F801CB03F801CB521E11
:103D800013F0030FF3D1032A4FD9B2F1004F4CD2F5
:103D9000C2F1000C4FEAEC740CEB947C4FEAAC0CD3
:103DA000CCF1000CBCF1000F1BDD0D1F1C1F1CF023
:103DB000010F03D055F8046F44F8046F5FEA6C06F6
:103DC00007D06F68676055F8087F44F8087F761E53
:103DD000F7D101EB8C0103EB8C03CCF1000C02EB6F
:103DE0008C02002A04BFF0BC7047B2F1004F26D20B
:103DF000002ADCBFF0BC7047491E5B1E12F0010FA9
:103E000003D011F801CF03F801CF521004BFF0BC6A
:103E1000704791F801C083F801C011F802CF03F890
:103E200002CF521EF5D1F0BC7047042AD9D351F805
:103E300004CB121F43F804CB042AF8D2D1E711F8BF
:103E400001CB03F801CB521EF9D1F0BC704770B41E
:103E5000034601F0FF0C10F0030F09D0002A04BF45
:103E600070BC704703F801CB521E13F0030FF5D15D
:103E7000C9B241EA012141EA0145032A39D9B2F127
:103E8000004F36D25142CC1701EB947189104E424B
:103E9000002E11DD191F16F0010F18BF41F8045F45
:103EA000741004D04D6041F8085F641EFAD171426D
:103EB00003EB860302EB8102002A04BF70BC70474B
:103EC000B2F1004F1DD2002ADCBF70BC7047591EF2
:103ED00012F0010F18BF01F801CF521004BF70BCDF
:103EE000704781F801C001F802CF521EF9D170BCB1
:103EF0007047042AE0D3121F43F8045B042AFAD265
:103F0000DAE703F801CB521EFBD170BC70470721E2
:103F1000017000207047002070470020704700208B
:103F2000704708B1002070476FF01500704710B55A
:103F30000446FFF79FFAA04201D9012010BD0020DE
:103F400010BD7CB504460B3815460F2801D94E210B
:103F500008E0C0B20A46014601AB0420FCF784F930
:103F600018B157216420FFF765F804EB8402694615
:103F70009DF9040002F62E12FFF72EFC9DF80010AA
:103F80002970BDF80110A5F801107CBD4FF0FF307D
:103F9000704700207047002070474FF0FF30704797
:103FA00070477047002070470021017070474FF044
:103FB000FF3070474FF0FF307047002101707047AD
:103FC0004FF0FF3070474FF0FF3070470078002807
:103FD00001D06FF01500704700207047002200F0FC
:103FE00002B8FCF7F7B870B514460D46001B6FF029
:103FF0007F01884201DA084602E07F2800DD7F2049
:1040000040B2FCF71BF928706C7000212044A970A5
:1040100040B270BDD8ECF0F4F8FC000203040506D1
:104020000708000000000000000000000000000081
:10403000000000000000010101010202020203036E
:104040000303040404040505050506060708090A18
:104050000B0C0D000000000000000000000000003C
:104060000000000000000001010101020202020341
:1040700003030304040404050505050606060809F0
:104080007FB5084B0848059304AA02234FF48651D4
:1040900004930EF0F5F804F07BFA002007B05DF809
:1040A00004FB00BFE84801002044010090B587B040
:1040B0006C4600AF88B06A460F4B53610F4B93615B
:1040C00003230F4842F8103F4FF4C8510EF0D8F8C0
:1040D0000C490D48A54604F089FA50B90B4B7B6199
:1040E000022307483B6107F110024FF482510EF0A2
:1040F000C7F81C37BD4690BDF94801002A4A0100A7
:1041000020440100464A01001A2E00200F490100F8
:1041100013B50A480469836801A95B68984720B908
:10412000236801985840C0F3C020012804D102B090
:10413000BDE81040FFF7BABF02B010BD0843010050
:104140002DE9F041044600AF00680D4616460FF019
:1041500060FC03462068BBB96C468AB003686A46B7
:10416000344951613449C2E9061340F201331384E2
:10417000324B42F8103F4FF4145131480EF080F8A2
:10418000A546BD46BDE8F081E388217943F480323D
:10419000D0F810E0D0F8088013F0010F4FF0010CB8
:1041A000DEF800300CFA01FC14BF4CEA030323EAEA
:1041B0000C03CEF80030D8F8003098470346217938
:1041C00020689BB16C468CB000686A461D4D5561F5
:1041D000194DC2E90801C2E9065340F202431385B2
:1041E000194B42F8103F4FF45451C6E783684FF023
:1041F000A072D3F818804FF0C063C047237960B134
:1042000022686C468CB011686A46104D55610A4DA3
:10421000C2E90813C2E90650DFE7012202FA03F3FC
:10422000C5E9016320688368DB69002BA9D02946B2
:104230009847A6E7454901003A4A010004000001F9
:10424000204401006F490100060000019C49010063
:104250007FB5064B05930648022304AA4FF4865106
:1042600004930EF00DF807B05DF804FBD649010089
:104270002044010090B587B06C4600AF88B06A4614
:104280000F4B1048C2E9053103234FF4C65142F8E1
:10429000103F0DF0F5FF0C490C48A54604F0A6F9B7
:1042A00050B90B4B7B61022306483B6107F11002BA
:1042B0004FF482510DF0E4FF1C37BD4690BD00BFA6
:1042C000E149010020440100464A01001A2E002065
:1042D0000F4901007FB5064B05930648022304AA47
:1042E0004FF4865104930DF0CBFF07B05DF804FB4B
:1042F000F549010020440100B0B584B0142000AF9E
:104300000EF078FF6C460EF085FF88B06A46274BAA
:104310005361274BC2E90630042342F8103F4FF4A3
:10432000045124480DF0ACFF4FF48873A54638467D
:104330003B800EF073FF204A204C1068516807F153
:10434000080303C307F108000EF06AFF4CF6AB53F5
:10435000BB801623237021236370C823A37010230E
:104360000025237101236371391DE5700222A01D10
:104370000EF0ACFC3946022204F108000EF0A6FC57
:104380000822B91804F10A000EF0A0FC4723A37418
:104390003123E37432230A4A0A490B482375FFF795
:1043A000CFFE28461037BD46B0BD00BF0C4A010005
:1043B000254A0100204401001C4A01001A2E002059
:1043C00011410000C8170020884401002DE9F04F7A
:1043D00095B000AF0446D7F878B0BB61CBF3C0030B
:1043E0007A623B61396251B903784678807800EB94
:1043F000830020440D46AE421AD8031B3B6294F85A
:104400000290E3787B614E46B9F1000F02D01BF0B9
:10441000010F16D17B6953BB7B6A1BB1BA69396A3C
:10442000204698473D6A28465437BD46BDE8F08F80
:1044300000F1010840460EF012FC01304044013505
:10444000D9E794F800A06368FB617B6A4FEA8A02AF
:10445000FA6004EB8A0A002B40F001813D6AD046E5
:1044600009EB0A03002643454ED1CA4413E01BF072
:10447000020FD1D094F800A04FEA8A03FB60636872
:10448000FB617B6A04EB8A0A002B78D13D6AB9F1A3
:10449000000F4ED14E461BF0050F0CBF0223012327
:1044A0007B627B690AEB43090BF002033B62CA455E
:1044B000B9D01AF8021B1AF8013C54F82380AD4B0E
:1044C000984502D3AC4B984539D33B69002B43D078
:1044D000F8690DF009FF00283ED0E8468AB06A4628
:1044E000A64B5361FB69C2E906314FF40073138494
:1044F000A34B42F8103FA34800234FF4125101F0A0
:10450000DBF8023DC546D2E718F8012B7B6254F870
:1045100022000EF0A4FBFA6F7B6A01303AB1D7F8A3
:10452000802096423EBFFA6F22F8160001360544FD
:1045300099E71BF004061CBF7E6ACA44ABE73B69DF
:1045400023B1F8690DF0D0FE0028C6D11BF0010F91
:1045500005D17B6AED1AAAE73B6A002BA7D040463B
:104560000EF07DFBFB6F43B1D7F880309E423FBF1A
:10457000FA6F431C22F816300136054497E7B9F16B
:10458000000F71D01BF0040671D0C846002607F159
:1045900040004A4651460EF099FB7B695B00BB60C8
:1045A0007B69CA440AEB43037B610BF002037B6027
:1045B0007B699A455DD12378FB6163781BF0020F1C
:1045C00006EB03020CBF4FEA580100211BF0010F5C
:1045D000D2B240F09D801BF0040F14BF4046002073
:1045E00094F802B094F803A03B616270A070E1708F
:1045F000BA69F9687B6A20469847051EFFF613AF33
:10460000FB6923703B6963704146BA697B6A84F831
:1046100002B084F803A007F140009847B0F1000809
:10462000C0F2A3803B6ABA697869A3EB0901FB6811
:10463000C91ABB68C91A7B6A98470028C0F29780DC
:10464000A84408EB00054FF0000B07F1300AB34512
:1046500060DB0021BA697B6A08469847E3E64FF0C1
:10466000000807F1300094E74E46C84695E7B0468B
:1046700093E71AF8021B3F4A1AF8015C54F82530F8
:10468000934202D33C4A93421CD33B6923B1F8695D
:104690000DF02AFE00288BD17B68F3B908F12802BF
:1046A00007F12800024408F1010302F8101C07F189
:1046B000500252FA83F308F102085FFA88F803F80F
:1046C000105C75E73B692BB1F8690DF00DFE002811
:1046D0007FF46EAF1BF0010F09D006F1280207F13D
:1046E0002801731C561806F8205CDEB260E71BF048
:1046F000040F3FF45DAF08F1280207F1280108F12B
:10470000010302EB010808F8105C5FFA83F84FE739
:10471000002065E71BF80A3087F82F3054F8239003
:10472000FB6FFBB133F81B80BA697B6A012107F18B
:104730002F00984700281ADB0544B8F1000F06D176
:1047400048460EF08CFA00F101081FFA88F8BA69A1
:104750007B6A414648469847002808DB05440BF130
:10476000010B74E7D7F87C80DEE745465BE605463B
:1047700059E600BF2842010000530100504A0100E1
:1047800004000001C8430100014B1B68184700BF2B
:1047900084000020014B1860704700BF8400002097
:1047A00007B50B46002102460091034800F02AF9A4
:1047B00003B05DF804FB00BF8947000030B587B047
:1047C0000025CDE903010446009503A90548059598
:1047D00000F018F9DDE904309842B8BF255407B05D
:1047E00030BD00BF372301002DE9F047058B04469B
:1047F0002807904611D4022905F0070540F0CD8026
:1048000020460DF0EAFD78B10138218B042811D83B
:10481000DFE800F0C3106D85950001290CBF45F05D
:10482000100545F02005258388F31188BFF36F8FAD
:10483000BDE8F08701F0070AAA4500F0A68000272E
:10484000B9463E46A368002B00F0BD8041F0080148
:10485000218388F31188BFF36F8FA168002900F0CE
:10486000BB800D68002900F0B780D1F80480334682
:1048700052462046C047002D76D02B6829461D465B
:10488000F0E701F007035A1F012A1BD8002221F08C
:104890000701062B276889B2C4E9002209D13B46EB
:1048A00003E0628B013262831B68002BF9D141F077
:1048B0000201218320460DF090FD00287BD041F0BD
:1048C000200177E0042B0AD121F0070189B221836E
:1048D00020460DF082FD10B141F020012183218B93
:1048E00001F0070AAA4550D00027B946AAE7236974
:1048F00021F0070141F00601062DD3F80090218335
:104900002DD1B9F1000F40D041F00801218388F387
:104910001188BFF36F8F3A492046C84729E021F03C
:104920000701236941F0040189B2042DD3F80490F2
:104930002183E6D000273E464FF0040A82E721F0AB
:104940000701236941F0050189B2052DD3F80890CC
:104950002183D6D000273E464FF0050A72E7002794
:104960003E464FF0060A6DE72B4687E7B9F1000F88
:10497000D1D14FF04003EFF3118883F31288BFF3D6
:104980006F8F238B23F008032383258BEA062ED514
:1049900025F01003238305F007056669218B002E9F
:1049A000BFF66FAF00232768C4E9003321F0070189
:1049B00041F001012183218B01F0070AAA454FF044
:1049C00000097FF43FAF002F9BD041F00801218305
:1049D00088F31188BFF36F8F002FC7D03D68394629
:1049E0003346524620460DF024FD2F46F4E7AB0631
:1049F0007FF51AAF25F02003238305F00705FFE6B6
:104A00005F2401002DE9F04F814695B08B46174693
:104A10001C460025387808B9284658E37B1C252811
:104A2000039306D05946C8470028C0F25083013589
:104A3000FBE1182200210EA80EF053F97B78252BFC
:104A40007DD00023781C98469E469C461E46014613
:104A500010F8012B2B2A00F0A18000F29880202A68
:104A600000F09F80232A00F09F802BB19DF84030FA
:104A700043F040038DF84030B8F1000F05D09DF8A9
:104A8000403043F020038DF84030BEF1000F05D0D8
:104A90009DF8403043F010038DF84030BCF1000F1A
:104AA00005D09DF8403043F008038DF840302EB11A
:104AB0009DF8403043F004038DF840309DF84030BD
:104AC00003F04400442803D16FF386138DF840307F
:104AD0009DF840302A2A43F080038DF840307FD182
:104AE0009DF8412042F001024B1C8DF841201A78BC
:104AF0002E2A9DF841200CBF0121002161F34102C3
:104B00008DF8412078D15A782A2A6ED001330022BC
:104B10004FF00A0C194611F8010BA0F13006092ECE
:104B200040F295809DF840101292C1F3400040EA97
:104B3000D2700A4660F341028DF840205CE0BA1C56
:104B400003928DF843309DF84130DA0740F12E8111
:104B500054F8048BB8F1000F07DA9DF8402042F0BA
:104B600004028DF84020C8F100085E0740F127815B
:104B700054F804ABBAF1000F80F226819DF8413061
:104B80006FF341038DF841304FF0FF3A1CE12D2ABD
:104B90000DD0302A7FF469AF012358E74FF0010CA4
:104BA00055E74FF0010E52E74FF001084FE701269D
:104BB0004DE70EFB0262303A0346184610F8016BCF
:104BC000A6F1300CBCF1090FF3D999428FD09DF8B2
:104BD00040101192D20F62F341018DF8401086E728
:104BE0000B4600224FF00A0EE7E79DF8412042F005
:104BF00004028DF8412002331A786C2A47D02BD852
:104C0000682A31D06A2A4BD04C2A51D01A4612F861
:104C1000013B0392782B9DF841208DF8433000F240
:104C2000BE806D2B51D8692B00F2B980572B67D805
:104C3000412B03D0453B022B00F2B1809DF842305E
:104C4000042262F302038DF84230012373E00CFB6F
:104C50000202303A0B465DE7742A25D07A2AD5D174
:104C60009DF8412006210CE05A78682A9DF84120E1
:104C700006D1012161F3C6028DF841200233C5E758
:104C8000022161F3C6028DF841200133BEE75A7854
:104C90006C2A9DF8412001D10421EBE70321F0E7C4
:104CA0009DF841200521ECE79DF841200721E8E728
:104CB000BDF8402022F4F04222F0020242F4804289
:104CC00042F00202ADF84020DFE76E3BD9B201238B
:104CD0008B4040F282410B4237D113F0240F51D167
:104CE000D8075CD59DF84230032161F302038DF8AB
:104CF000423002F07803A3F140014B424B411AE0ED
:104D0000A3F15801C9B2012000FA01F111F4624F78
:104D100094D140F6010631421DD111F4043F3ED03A
:104D20009DF8423060F3020302F07802402A8DF8C9
:104D3000423034D000239DF84020C2F340010B43A1
:104D400063F341028DF84020FDE69DF842300221D8
:104D500061F30203E8E79DF84210022002F07802B6
:104D600060F30201402A8DF8421002BF9DF8401006
:104D700041F001018DF84010632BDBD1131E18BFE9
:104D80000123D8E79DF84230032161F3020312F0BA
:104D9000780F8DF8423014BF01230023CBE79DF834
:104DA000403043F001038DF84030C3E79DF94020C7
:104DB000002AB4BFDDF844804FF0FF38D5E69807ED
:104DC0007FF5E2AEDDF848A09DF841100023CDE963
:104DD00011339DF8423003F00703012BC1F3C301E7
:104DE00033D1CB1E042B04D8DFE803F02146462143
:104DF0002100236801294FEAE372CDE90E321CD16C
:104E00009DF93830DA17CDE90E3204349DF8403080
:104E100013F0030650D0039B3A46594648460DF01E
:104E20003CFC0028C0F253810544039FF2E554F88E
:104E3000043BDA17CDE90E32E8E70229E5D11AB2D0
:104E400043F3C033CDE90E23DFE7022B24D1CB1E81
:104E5000042B04D8DFE803F01810101818000129FB
:104E600054F8043B4FF0000214D00229CDE90E3271
:104E7000CCD19BB20E93C9E7073424F00704F4E8C1
:104E80000223CDE90E23C1E754F8043B0E9300231F
:104E90000F93BBE7DBB2CDE7042B08D1073424F036
:104EA0000704D4E900230834CDE90E23AEE7032B31
:104EB000ACD154F8043BDDE79DF843007828B4D822
:104EC00062281CD825283FF4ADAD5828ADD10DF18E
:104ED00036030093DDE90E0108AB10AA0DF097FB35
:104EE000BAF1000F074680F29A80002F9DD00DF195
:104EF0003603D81B002E00F0C1800130BEE06338BD
:104F0000152892D801A252F820F000BFE14F00000E
:104F1000F34F00002B4E00002B4E00002B4E0000E4
:104F20002B4E0000F34F00002B4E00002B4E0000D4
:104F30002B4E00002B4E0000815000001950000045
:104F40003F5000002B4E00002B4E0000654F00002C
:104F50002B4E0000195000002B4E00002B4E00007D
:104F600019500000BAF1000F0E9F35DB514638464C
:104F70000DF07CFE07EB000A002F3FF456AF002631
:104F80009DF8423013F01002059200F09380023039
:104F90005B06119A48BF129B0492104448BFC01888
:104FA000B8F1000F40F3A0809DF84020A8EB000866
:104FB000C2F380035007069300F19680510640F13A
:104FC00089803EB159463046C84700287FDB069BA2
:104FD00001351E4630227EE038460DF040FEC9E71E
:104FE0000E9B8DF82030002608AF0DF1210A01201C
:104FF000C6E719075CBFC3F300135E01DDE90E23AA
:1050000048BF2B26002BBFF662AF524263EB43032F
:10501000CDE90E232D265AE7002658E700269DF8F5
:1050200040200DF13603DB1B6FF386129A458DF895
:1050300040207FF65AAFAAEB0303119355E70E9871
:1050400090B30DF13603009310AA08AB00210DF0C8
:10505000DEFABDF8423003F0EF0343F4F04343F0CF
:105060001003BAF1000F0746ADF84230D6DA002837
:105070003FF4DBAE0DF13603181A00269A467FE79F
:105080000E9B07293FF6D1AEDFE801F00C04060CB9
:1050900008080C0C1D70C8E61D80C6E6EA17C3E9B7
:1050A0000052C2E61D60C0E62E4F064607F1050A13
:1050B000052065E71A0748BF013069E707931046E6
:1050C00006925946C8470028DDE9062304DA15B0E0
:1050D000BDE8F08F202243461946002903F1FF3333
:1050E000ECDC45446D1A98462EB159463046C84707
:1050F0000028ECDB01359DF84230DA0601D41B07AD
:1051000005D559463020C8470028E0DB0135059B0E
:1051100033B19DF843005946C8470028D7DB013515
:10512000049E2E4405E059463020C8470028CEDBB7
:105130000135731B002BF6DC53463A465946484668
:105140000DF0ABFA0028C2DB0544A844A8EB050328
:10515000002B7FF76AAE59462020C8470028B6DBEF
:105160000135F3E7044B010008B54FF04002EFF3BF
:10517000118382F31288BFF36F8F01F027FE03487B
:105180000DF0ECF800F0C8FFFCE700BF0A4B01008F
:1051900007F0FABC2DE9F047DFF8588004460746CF
:1051A0004FF0010914B93846BDE8F08794FAA4F528
:1051B000B5FA85F509FA05F32E0108EB05156FEA36
:1051C000030A24EA03042B7B002BEBD058F80630AB
:1051D0001B694BB94644042273682846196807EADC
:1051E0000A0700F055FADDE7284698470028D9D18C
:1051F000F0E700BF4044010030B51049104889B0C5
:1052000000220EF03EFE0F4D0F4900220023CDE993
:10521000062300240E23CDE90334CDE901440B4BD2
:1052200000944FF44072284608F002FC08492846D2
:105230000EF051FC204609B030BD00BF55520000B1
:10524000600D0020D8080020403C00203D550000A3
:10525000334B0100014808F045BD00BF3404002075
:105260002DE9F04780461F480F460DF03DFC0646ED
:10527000002830D000252846BDE8F087237B73B195
:105280002368DB680BB12046984723681B69D3B9B4
:10529000636804221968204600F0FAF901361034D8
:1052A0004C45EBD3B8F1000FE5D0002DE2D02846F5
:1052B000FFF770FF0546002FF7D000214FF4A470D0
:1052C00009F0B2F9F1E7204698470028E0D00AFA41
:1052D00006F31D43E2E7044CDFF8109005464FF05B
:1052E000010ADDE7E41700204044010060440100AA
:1052F000014B53F820007047A444010008B5034651
:1053000008462BB1044A136000F0FEFB002008BDE4
:105310006FF01500FBE700BF8800002010B5044CBB
:10532000237813B9034808F0DDFC0123237010BD76
:10533000992E00203404002010B5044608480DF0D2
:10534000D3FB5CB1BFF35B8F064B53E8001F013901
:1053500043E80012002AF8D1BFF35B8F10BD00BFF5
:10536000DC170020E01700200020064BBFF35B8F06
:10537000014653E8000F43E80012002AF9D1BFF3B9
:105380005B8F7047DC17002070B5FFF7EDFF084C0E
:10539000084E0546B44200D370BD63685B792BB1FB
:1053A00023685B6813B12946204698471034F1E71B
:1053B000404401006044010010B5044C04492046FB
:1053C0000DF02FFA034B1C6010BD00BF80030020BE
:1053D00090440100D417002008B5074A074800236D
:1053E0001370074A4FF400411360FFF787FFBDE8D1
:1053F0000840FFF7E1BF00BF9A2E0020E52A010018
:10540000DC17002001460022014800230DF02ABAD3
:105410008003002001480DF0C3BA00BF80030020C4
:10542000024B014618680DF00BBB00BFD4170020DB
:1054300001480DF039BB00BF8003002070B5284B38
:10544000187800284BD0FFF7E5FF054690B1BFF371
:105450005B8F244B53E8001F013943E80012002AF8
:10546000F8D1BFF35B8F204C204EB4422DD3284699
:10547000FFF7D6FF1E4B1F4C1B68002B19DD0EF0EB
:10548000FAFC4FF47A72A0FB020302FB0131C30B5A
:10549000D4E9002043EA41439B1A4FEAD13140F25C
:1054A000E93261EB0001934271F1000101D3FFF792
:1054B0006BFFD4E9003213F57A7342F10002C4E9BC
:1054C0000032BDE87040FFF7B3BF63685B7923B17A
:1054D000236829461B68204698471034C5E770BDED
:1054E000992E0020E0170020404401006044010094
:1054F000DC170020580D002070B50D4D297861B9DA
:105500000120FFF7ADFE0B4C0B4EB44206D3FFF764
:1055100095FF0028FBD101232B7070BD63685B7978
:105520001BB1236820469B6898471034EDE700BF05
:105530009A2E0020404401006044010000212DE922
:10554000F0470846FFF78CFE044648B340F2676810
:105550004FF0000909F082F81A4B186030B11A4B6D
:105560001B68092B02DD194808F0BCFB184FDFF857
:105570005CA0002544B12046FFF70CFE044618B994
:105580004FF0FF384FF0FF39FFF758FF064628B9B4
:10559000B5B942464B46504608F0C4FB3546E9E7EC
:1055A0004FF0FF384FF0FF39D4E72B689B691BB1F0
:1055B00000221146284698471035BD42F5D3E8E74A
:1055C000044DFAE7D8170020E0170020340400202B
:1055D000604401004044010013B518480DF084FAFE
:1055E000174B1B787BB14FF04003EFF3118483F32B
:1055F0001288BFF36F8FFFF721FF84F31188BFF389
:105600006F8F02B010BD0F4B1B68002BF9D050B943
:1056100000220023CDE900230B484FF40042002371
:1056200009F058FAEDE70A28EBD107480EF035FCEF
:10563000064802B0BDE8104008F054BBE017002057
:105640009A2E0020D8170020600D0020340400207E
:1056500010B5064B1B68044698472146A0600448D5
:105660000DF07EF9BDE81040FFF7B6BF88000020BE
:1056700080030020044A054B9B1AB1EBD30F34BFC3
:1056800052F8310000207047C84301004044010037
:10569000084BC31A10B41B114468013323714368CB
:1056A0009A7143681960436801225A7110BCFFF770
:1056B00035BE00BF404401002DE9F04F8FB0C1F36B
:1056C000CB44C1F3492605900D46904699461734C0
:1056D000002E3CD04FF0040B09AF4FF00A0A002215
:1056E00031460BABCDF808B00197CDF800A040468D
:1056F000CDE90B220D920796FEF768FEC0F3090371
:10570000181920F0070080081E4663F352250693FF
:10571000FFF778FE044678B1069B0C931030002208
:105720000B900D92CDE9017B0C4A0799CDF800A0B2
:105730000BAB4046FEF74AFE66F3522505994B46F1
:105740002A4620460FB0BDE8F04F0DF0F5B924F021
:1057500007008008FFF756FE0446EDE70D2B010019
:105760000EB403B503AB014653F8042B0448019370
:105770000DF009FA02B05DF804EB03B0704700BF0A
:10578000AF2B0100CA0605D48B064CBF0249034962
:10579000FFF7E6BF704700BF494B0100484B0100CF
:1057A0002DE9F04F89B09B469DF848300493DDE920
:1057B00013930593049B0692DDE9157604460D4686
:1057C000002B00F0878006F0080307930DF09CF98A
:1057D00006F0020A024600284BD086492046FFF711
:1057E000BFFF8046BAF1000F08D016F0440F42D137
:1057F00081492A462046FFF7B3FF804406F00103A3
:105800005BB17E4B049A7E4953F822207D4B2046A3
:10581000002A08BF1A46FFF7A3FF06F00803002B73
:1058200055D0794B049A794953F822202046FFF746
:1058300097FF0546069B2BB175491A462046FFF790
:105840008FFF0544BBF1000F05D072495A46204630
:10585000FFF786FF05444544B9F1000F49D1002FF9
:105860004FD1F30700F1C08031462046FFF78AFF91
:10587000B4E08046B6E7684B18680028BDD0674B97
:105880004FF47A7E1B68B5FBF3F54FF46162B5FB0C
:10589000F0F300FB1355B3FBF2FA0EFB05F502FB28
:1058A0001A323C21B5FBF0FCB2FBF1F300FB1C55B6
:1058B00001FB13220EFB05F50092B5FBF0F55849EC
:1058C000CDE901C552462046FFF74AFF95E706F0AD
:1058D0000805AFE7BBF1010F06D1B9F1000F64D1A4
:1058E000002F7BD000250CE0B9F1000FF8D04D4817
:1058F0005CE04D484D494B4622460CF0C4FC002F5D
:1059000068D0DFF82C91DFF82CA1102F314620460B
:10591000B84628BF4FF01008FFF734FF4FF0000BD8
:105920005D4545DC059B51461A782046FFF718FF78
:105930004FF0010B1BF0070F03D149462046FFF73C
:105940000FFFD8453BD9059B514613F80B20204645
:10595000FFF706FF0BF1010BBBF1100FEAD136493F
:1059600020464FF0000BFFF7FBFE5A46059B9A5C62
:10597000A2F120015F2928BF2E2230492046FFF7DF
:10598000EFFE0BF1010BBBF1100F1DD01BF0070F49
:1059900003D149462046FFF7E3FED8455A46E5D8ED
:1059A00049462046FFF7DCFEEBE71F48049DA1E7D0
:1059B00049462046FFF7D4FE0BF1010BB0E7204922
:1059C0002046FFF7CDFEC5E7059BB7EB080743442C
:1059D00005939AD1049B002B7FF443AF204609B076
:1059E000BDE8F04F0DF0D6B8064A05492046FFF74E
:1059F000B7FE39E7504B0100544B0100B44401009D
:105A0000794B01004B4B0100C84401007C4B010065
:105A1000824B0100864B0100EC170020E8170020A4
:105A20005D4B0100E52B0100AF2B0100872B01002E
:105A3000934B01008B4B0100954B0100974B0100EC
:105A4000914B01002DE9F0410F884B688E6886B0BC
:105A500005460C469046C7F382175BB1134A9B1A62
:105A600043F3CF0100291FDB2078C0F3C200FFF70A
:105A700001FE03462146608851F8102B0097C2F3BF
:105A80004922002A01EB0204C0F3CB0008BF002129
:105A9000CDE90308CDE90114002231462846FFF77D
:105AA0007FFE06B0BDE8F0810023E3E7C8430100B4
:105AB00073B542F20F738B4228BF0B4605680F4A3D
:105AC0000446052168460CF056FC63680C495B6887
:105AD00006460B2228460DF049F8636832466946AF
